:020000040800F2
:1000000000500020A5230008CD0F0008D10F0008E4
:10001000D50F0008D90F0008DD0F00080000000010
:10002000000000000000000000000000E10F0008D8
:10003000E50F000800000000E90F0008ED0F0008C0
:10004000ED230008ED230008ED230008ED23000850
:10005000ED230008ED230008ED230008ED23000840
:10006000ED230008ED230008ED230008F50F00083C
:10007000ED230008ED230008ED230008ED23000820
:10008000ED230008ED23000805100008ED2300080B
:10009000ED230008ED230008ED230008ED23000800
:1000A000ED230008ED230008ED230008ED230008F0
:1000B000ED230008ED230008ED230008ED230008E0
:1000C000ED230008ED230008ED230008ED230008D0
:1000D000ED230008ED230008ED230008ED230008C0
:1000E000ED230008ED230008ED23000800000000C8
:1000F0000000000000000000000000000000000000
:0C01000000000000000000005FF808F1A3
:1001100010B5054C237833B9044B13B10448AFF341
:1001200000800123237010BD10000020000000009B
:100130004C240008084B10B51BB108490848AFF320
:1001400000800848036803B910BD074B002BFBD0A3
:10015000BDE81040184700BF000000001400002058
:100160004C2400080C0000200000000081F0004139
:1001700002E000BF83F0004330B54FEA41044FEA8C
:10018000430594EA050F08BF90EA020F1FBF54EA27
:10019000000C55EA020C7FEA645C7FEA655C00F0C3
:1001A000E2804FEA5454D4EB5555B8BF6D420CDD94
:1001B0002C4480EA020281EA030382EA000083EA17
:1001C000010180EA020281EA0303362D88BF30BDB7
:1001D00011F0004F4FEA01314FF4801C4CEA11310D
:1001E00002D0404261EB410113F0004F4FEA03336C
:1001F0004CEA133302D0524263EB430394EA050FF7
:1002000000F0A780A4F10104D5F1200E0DDB02FA65
:100210000EFC22FA05F2801841F1000103FA0EF2F9
:10022000801843FA05F359410EE0A5F120050EF1BF
:10023000200E012A03FA0EFC28BF4CF0020C43FAF0
:1002400005F3C01851EBE37101F0004507D54FF0FD
:10025000000EDCF1000C7EEB00006EEB0101B1F54D
:10026000801F1BD3B1F5001F0CD349085FEA300093
:100270004FEA3C0C04F101044FEA445212F5800F9E
:1002800080F09A80BCF1004F08BF5FEA500C50F13B
:10029000000041EB045141EA050130BD5FEA4C0C1E
:1002A000404141EB010111F4801FA4F10104E9D1A7
:1002B00091F0000F04BF01460020B1FA81F308BF9E
:1002C0002033A3F10B03B3F120020CDA0C3208DD6A
:1002D00002F1140CC2F10C0201FA0CF021FA02F145
:1002E0000CE002F11402D8BFC2F1200C01FA02F1B5
:1002F00020FA0CFCDCBF41EA0C019040E41AA2BFDA
:1003000001EB0451294330BD6FEA04041F3C1CDAA1
:100310000C340EDC04F11404C4F1200220FA04F0C1
:1003200001FA02F340EA030021FA04F345EA03016B
:1003300030BDC4F10C04C4F1200220FA02F001FA2D
:1003400004F340EA0300294630BD21FA04F02946AF
:1003500030BD94F0000F83F4801306BF81F4801148
:100360000134013D4EE77FEA645C18BF7FEA655CBB
:1003700029D094EA050F08BF90EA020F05D054EA8D
:10038000000C04BF1946104630BD91EA030F1EBF92
:100390000021002030BD5FEA545C05D14000494196
:1003A00028BF41F0004130BD14F580043CBF01F589
:1003B000801130BD01F0004545F0FE4141F470016F
:1003C0004FF0000030BD7FEA645C1ABF194610464A
:1003D0007FEA655C1CBF0B46024650EA013406BF4B
:1003E00052EA033591EA030F41F4002130BD00BF0A
:1003F00090F0000F04BF0021704730B54FF48064C7
:1004000004F132044FF000054FF0000150E700BF47
:1004100090F0000F04BF0021704730B54FF48064A6
:1004200004F1320410F0004548BF40424FF0000193
:100430003EE700BF42004FEAE2014FEA31014FEAD6
:1004400002701FBF12F07F4393F07F4F81F0605125
:10045000704792F0000F14BF93F07F4F704730B594
:100460004FF4607401F0004521F0004120E700BF27
:1004700050EA010208BF704730B54FF000050AE0AE
:1004800050EA010208BF704730B511F0004502D5AF
:10049000404261EB41014FF4806404F132045FEAB1
:1004A000915C3FF4DCAE4FF003025FEADC0C18BF56
:1004B00003325FEADC0C18BF033202EBDC02C2F14C
:1004C000200300FA03FC20FA02F001FA03FE40EADE
:1004D0000E0021FA02F11444C1E600BF70B54FF0DE
:1004E000FF0C4CF4E06C1CEA11541DBF1CEA1355C0
:1004F00094EA0C0F95EA0C0F00F0DEF82C4481EA28
:10050000030621EA4C5123EA4C5350EA013518BF47
:1005100052EA033541F4801143F4801338D0A0FB34
:1005200002CE4FF00005E1FB02E506F00042E0FBE1
:1005300003E54FF00006E1FB03569CF0000F18BFE7
:100540004EF0010EA4F1FF04B6F5007F64F540748F
:1005500004D25FEA4E0E6D4146EB060642EAC62122
:1005600041EA55514FEAC52040EA5E504FEACE2E8F
:10057000B4F1FD0C88BFBCF5E06F1ED8BEF1004F92
:1005800008BF5FEA500E50F1000041EB045170BD0E
:1005900006F0004646EA010140EA020081EA030152
:1005A000B4EB5C04C2BFD4EB0C0541EA045170BD4E
:1005B00041F480114FF0000E013C00F3AB8014F1C8
:1005C000360FDEBF002001F0004170BDC4F1000411
:1005D000203C35DA0C341BDC04F11404C4F1200592
:1005E00000FA05F320FA04F001FA05F240EA0200ED
:1005F00001F0004221F0004110EBD37021FA04F623
:1006000042EB06015EEA430E08BF20EAD37070BDDC
:10061000C4F10C04C4F1200500FA04F320FA05F03B
:1006200001FA04F240EA020001F0004110EBD3703D
:1006300041F100015EEA430E08BF20EAD37070BDAD
:10064000C4F1200500FA05F24EEA020E20FA04F386
:1006500001FA05F243EA020321FA04F001F0004135
:1006600021FA04F220EA020000EBD3705EEA430EA6
:1006700008BF20EAD37070BD94F0000F0FD101F0D5
:100680000046400041EB010111F4801F08BF013C0E
:10069000F7D041EA060195F0000F18BF704703F04C
:1006A0000046520043EB030313F4801F08BF013DD3
:1006B000F7D043EA0603704794EA0C0F0CEA13558F
:1006C00018BF95EA0C0F0CD050EA410618BF52EA49
:1006D0004306D1D181EA030101F000414FF000004F
:1006E00070BD50EA410606BF1046194652EA43065D
:1006F00019D094EA0C0F02D150EA013613D195EAD1
:100700000C0F05D152EA03361CBF104619460AD118
:1007100081EA030101F0004141F0FE4141F4700122
:100720004FF0000070BD41F0FE4141F4780170BD12
:1007300070B54FF0FF0C4CF4E06C1CEA11541DBF77
:100740001CEA135594EA0C0F95EA0C0F00F0A7F879
:10075000A4EB050481EA030E52EA03354FEA0131A6
:1007600000F088804FEA03334FF0805545EA1313B9
:1007700043EA12634FEA022245EA111545EA106581
:100780004FEA00260EF000419D4208BF964244F118
:10079000FD0404F5407402D25B084FEA3202B61A37
:1007A00065EB03055B084FEA32024FF480104FF40B
:1007B000002CB6EB020E75EB030E22BFB61A75467F
:1007C00040EA0C005B084FEA3202B6EB020E75EB12
:1007D000030E22BFB61A754640EA5C005B084FEA7A
:1007E0003202B6EB020E75EB030E22BFB61A754647
:1007F00040EA9C005B084FEA3202B6EB020E75EB52
:10080000030E22BFB61A754640EADC0055EA060E12
:1008100018D04FEA051545EA16754FEA06164FEA55
:10082000C30343EA52734FEAC2025FEA1C1CC0D101
:1008300011F4801F0BD141EA00014FF000004FF08E
:10084000004CB6E711F4801F04BF01430020B4F14F
:10085000FD0C88BFBCF5E06F3FF6AFAEB5EB030C07
:1008600004BFB6EB020C5FEA500C50F1000041EB04
:10087000045170BD0EF0004E4EEA113114EB5C04D1
:10088000C2BFD4EB0C0541EA045170BD41F48011A4
:100890004FF0000E013C90E645EA060E8DE60CEAAC
:1008A000135594EA0C0F08BF95EA0C0F3FF43BAFC9
:1008B00094EA0C0F0AD150EA01347FF434AF95EA80
:1008C0000C0F7FF425AF104619462CE795EA0C0F64
:1008D00006D152EA03353FF4FDAE1046194622E731
:1008E00050EA410618BF52EA43067FF4C5AE50EA0B
:1008F00041047FF40DAF52EA43057FF4EBAE12E7FB
:100900004FF0FF3C06E000BF4FF0010C02E000BFDB
:100910004FF0010C4DF804CD4FEA410C7FEA6C5CBE
:100920004FEA430C18BF7FEA6C5C1BD001B050EA61
:10093000410C0CBF52EA430C91EA030F02BF90EA4C
:10094000020F0020704710F1000F91EA030F58BF0B
:10095000994208BF90422CBFD8176FEAE37040F06D
:10096000010070474FEA410C7FEA6C5C02D150EA0B
:10097000013C07D14FEA430C7FEA6C5CD6D152EAC6
:10098000033CD3D05DF8040B704700BF844610468B
:1009900062468C461946634600E000BF01B5FFF78A
:1009A000B7FF002848BF10F1000F01BD4DF808ED5A
:1009B000FFF7F4FF0CBF012000205DF808FB00BF2B
:1009C0004DF808EDFFF7EAFF34BF012000205DF885
:1009D00008FB00BF4DF808EDFFF7E0FF94BF0120D2
:1009E00000205DF808FB00BF4DF808EDFFF7CEFFD3
:1009F00094BF012000205DF808FB00BF4DF808ED12
:100A0000FFF7C4FF34BF012000205DF808FB00BFE2
:100A1000884200DA0846704770B504460E4615460F
:100A200011463046FFF7F4FFA04207DD2946204675
:100A3000FFF7EEFF864203DB304670BD204670BDF7
:100A4000284670BD2DE9F8438046894616461F4664
:100A5000FFF790FB054621F00044DDE908234046FE
:100A60004946FFF787FB024621F00043284621460E
:100A7000FFF782FB00220B4BFFF730FD04460D46CB
:100A8000DDE9082330463946FFF776FB0022054BA7
:100A9000FFF724FD02460B4620462946FFF748FE95
:100AA000BDE8F8830000E03F2DE9F04F83B0054634
:100AB0000E461746FFF7B0FF044685421BD1284675
:100AC000FFF7A6FC804689463046FFF7A1FC824628
:100AD0008B463846FFF79CFCCDE9000152465B4649
:100AE00040464946FFF7AEFF27A3D3E90023FFF7AF
:100AF0007BFF00283BD1A6421AD13046FFF788FC85
:100B0000804689462846FFF783FC82468B46384656
:100B1000FFF77EFCCDE9000152465B464046494660
:100B2000FFF790FF18A3D3E90023FFF75DFF00BB99
:100B3000A74220D13846FFF76BFC804689462846FD
:100B4000FFF766FC04460D463046FFF761FCCDE931
:100B5000000122462B4640464946FFF773FF0AA391
:100B6000D3E90023FFF740FF38B1032006E001205E
:100B700004E0022002E0002000E0002003B0BDE815
:100B8000F08F00BFAFF30080333333333333C33FD1
:100B900008B5012201F04AFA08BD00BF08B50022DD
:100BA00001F044FA08BD00BF30B595B028220021FD
:100BB0000DEB020001F042FC00240594069407941A
:100BC00008940994019402940394049401220A92D3
:100BD0004FF480330B930E920225119512934FF42C
:100BE000E01313930AA800F09FFD0F2305930695C9
:100BF00007944FF4806308930994294605A800F0F0
:100C0000CBFF01954FF40043039301A801F098F83E
:100C100015B030BD08B500F039FDFFF7C5FF00F095
:100C2000C7F800F0B9F900F01DF978225749584883
:100C300000F0B4FB574C00220121204601F0F6F9E8
:100C400000220221204601F0F1F900224FF4007148
:100C5000204601F0EBF94FF4FA7000F03BFD002361
:100C60004D4A13604D4A13604D4A13604D4A13704C
:100C700019E05A1CD2B2454951F82330484804685B
:100C800023440360531CDBB251F82220434804681C
:100C900022440260581C434A107051F823303E4AE7
:100CA00011680B4413603F4B1B78632BE1D93C4B1D
:100CB00018683D4AA2FB001040091860374B1968BC
:100CC000A2FB014149091960334C2368A2FB03329E
:100CD00052092260FFF7E8FE01280DD12D4C0121B9
:100CE0002046FFF755FF02212046FFF757FF4FF43C
:100CF00000712046FFF752FF274B1A68274B1968EF
:100D0000274B1868FFF7D0FE02280DD1214C022195
:100D10002046FFF73DFF01212046FFF73FFF4FF43C
:100D200000712046FFF73AFF1B4B1A681B4B1968EE
:100D30001B4B1868FFF7B8FE03280DD1154C4FF474
:100D400000712046FFF724FF01212046FFF726FF10
:100D500002212046FFF722FF0F4B1A680F4B19683C
:100D60000F4B1868FFF7A0FE00287FF474AF094C02
:100D700001212046FFF70CFF02212046FFF708FF64
:100D80004FF400712046FFF703FF64E73C000020AA
:100D90003C020020000C0140380000202802002006
:100DA000380200201C020020CDCCCCCC704700BF04
:100DB00070B588B000240494059406940794254BDC
:100DC0009A6942F010029A619A6902F01002009248
:100DD000009A9A6942F020029A619A6902F0200210
:100DE0000192019A9A6942F004029A619A6902F0AA
:100DF00004020292029A9A6942F008029A619B697F
:100E000003F008030393039B134E012240F20321D6
:100E1000304601F00BF94FF400430493059401258B
:100E2000069504A90D4801F015F8072304930594CD
:100E3000069504A90A4801F00DF840F20323049333
:100E4000059506940223079304A9304601F002F8A1
:100E500008B070BD00100240000C014000100140BD
:100E60000008014000B585B000230193029303936D
:100E70001C481D4A02604FF4807282600122C260E9
:100E800043614FF46022C26143600323036100F0B9
:100E90004FFB08B1FFF78AFF03230193012202925F
:100EA000039301A90F4800F09DF908B1FFF77EFFF9
:100EB000042301930223029301A90A4800F092F946
:100EC00008B1FFF773FF052301930323029301A9E0
:100ED000044800F087F908B1FFF768FF05B05DF836
:100EE00004FB00BF3C0200200024014010B586B086
:100EF000002302930393049305930268224B9A42C2
:100F00003FD1044603F56C439A6942F400729A613A
:100F10009A6902F400720092009A9A6942F00402FF
:100F20009A619B6903F004030193019B38230293A8
:100F30000323039302A9154800F08CFF1448154BB6
:100F400003600023436083608023C3604FF4807399
:100F500003614FF480634361202383614FF40053A6
:100F6000C36101F07FF808B1FFF720FF084B23624F
:100F70005C6200221146122001F09AF9122001F061
:100F8000C9F906B010BD00BF0024014000080140AF
:100F90006C0200200800024000B583B00A4B5A6979
:100FA00042F001025A615B6903F001030193019B66
:100FB000002211460B2001F07BF90B2001F0AAF969
:100FC00003B05DF804FB00BF00100240704700BF93
:100FD000FEE700BFFEE700BFFEE700BFFEE700BF81
:100FE000704700BF704700BF704700BF08B500F0F2
:100FF0005FFB08BD08B5024801F0A6F808BD00BFB8
:101000006C02002008B5024800F05AF808BD00BF85
:101010003C02002082B00E4B9A6942F001029A61B4
:101020009A6902F001020092009ADA6942F0805255
:10103000DA61DB6903F080530193019B054A536831
:1010400023F0E06343F00073536002B0704700BFC9
:101050000010024000000140704700BF08B5436A1D
:101060009A6A12F0500F1CD19A6A42F400729A6286
:101070001A68926802F46022B2F5602F0DD1DA6826
:101080005AB99A6A22F480729A629A6A12F4805F5C
:1010900003D19A6A42F001029A621846FFF7DCFF18
:1010A00008BD1B6A1B6B984708BD00BF704700BF97
:1010B00008B5406AFFF7FAFF08BD00BF704700BFE0
:1010C00010B5044603685A6812F0200F2AD01A6837
:1010D00012F0020F26D0826A12F0100F03D1826A3A
:1010E00042F4007282629A6802F46022B2F5602FC4
:1010F00011D1E2687AB95A6822F020025A60A36AD4
:1011000023F48073A362A36A13F4805F03D1A36AFC
:1011100043F00103A3622046FFF79EFF23686FF0B0
:1011200012021A6023685A6812F0800F34D01A68CD
:1011300012F0040F30D0A26A12F0100F03D1A26A8D
:1011400042F40052A2629A6802F4E042B2F5E04F23
:101150000BD05A6812F4806F17D19A6802F460229B
:10116000B2F5602F11D1E2687AB95A6822F0800294
:101170005A60A36A23F48053A362A36A13F4807FA6
:1011800003D1A36A43F00103A362204600F056FA9C
:1011900023686FF00C021A6023685A6812F0400F3F
:1011A0000ED01B6813F0010F0AD0A36A43F48033FA
:1011B000A3622046FFF782FF23686FF001021A60E6
:1011C00010BD00BF704700BF08B5406A836A43F096
:1011D00040038362C36A43F00403C362FFF7F2FF74
:1011E00008BD00BF70B483B00023019390F8243091
:1011F000012B00F08880012380F824304B68062BF7
:101200000ED80668756B03EB8303053B1F249C40D7
:1012100025EA04040A6802FA03F3234373631EE019
:101220000C2B0ED805682A6B03EB8303233B1F248A
:101230009C4022EA04040A6802FA03F323432B6366
:101240000DE00568EA6A03EB8303413B1F249C40E1
:1012500022EA04040A6802FA03F32343EB620B68F0
:10126000092B0ED90668F56803EB43031E3B0724E0
:101270009C4025EA04048A6802FA03F32343F360DE
:101280000CE00668356903EB430307249C4025EA1C
:1012900004048A6802FA03F3234333610B68103BAA
:1012A000012B26D803681A4A93421CD19A6812F47B
:1012B000000F20D19A6842F400029A600B68102B4C
:1012C0001BD1144B1B68144AA2FB03239B0C03EB9A
:1012D00083035A00019202E0019B013B0193019BB1
:1012E000002BF9D10AE0836A43F0200383620123D3
:1012F00004E0002302E0002300E00023002280F845
:101300002420184600E0022003B070BC704700BFE4
:10131000002401400800002083DE1B4330B583B069
:101320000023019303689A6812F0010F2FD19A6885
:1013300042F001029A60174B1B68174AA2FB032375
:101340009B0C019302E0019B013B0193019B002B4D
:10135000F9D1044600F0B8F9054611E000F0B4F9FF
:10136000401B02280CD9A36A43F01003A362E36A6E
:1013700043F00103E362002384F82430012007E0F6
:1013800023689B6813F0010FE8D0002000E00020E4
:1013900003B030BD0800002083DE1B43F8B50468AD
:1013A0004A4DAC4203D005F58065AC4205D1474BB0
:1013B0005B6813F4702F40F0858090F82440012C76
:1013C00000F0828017460E460446012380F8243040
:1013D000FFF7A4FF0546002870D1A36A23F47063C9
:1013E00023F0010343F48073A3622268384B9A42CE
:1013F00005D1A3F580635B6813F4702F0ED1A36A47
:1014000023F48013A362536813F4806F1CD0A36A83
:1014100023F4405343F48053A36215E0A36A43F4DA
:101420008013A362294B9A4203D003F580639A424A
:101430000AD1264B5B6813F4806F05D0A36A23F4AE
:10144000405343F48053A362A36A13F4805F04D033
:10145000E36A23F00603E36201E00023E362002372
:1014600084F82430236A1B4A9A62236A1A4ADA6291
:10147000236A1A4A1A6323686FF002021A6022680C
:10148000936843F48073936021683B4632464C3145
:10149000206A00F01FFE2268936803F46023B3F50E
:1014A000602F05D1936843F4A00393602846F8BDEC
:1014B000936843F4801393602846F8BD002384F8B2
:1014C0002430F8BD0120F8BD0220F8BD0024014001
:1014D000002801405D100008B1100008C911000883
:1014E00038B503689A6812F0010F1ED004469A6856
:1014F00022F001029A6000F0E7F805460EE000F0E5
:10150000E3F8401B022809D9A36A43F01003A36241
:10151000E36A43F00103E362012038BD23689B685E
:1015200013F0010FEBD1002038BD002038BD00BF03
:1015300000287DD038B50446836A23B9C36280F899
:101540002430FFF7D3FC2046FFF7CAFFA36A13F04D
:10155000100F67D1002865D1A36A23F4885323F0C4
:10156000020343F00203A3626268E3691343E16884
:1015700043EA4103A268B2F5807F04D0012A05D175
:101580004FF4807503E04FF4807500E00025626938
:10159000012A0FD131B9A269013A45EA423242F437
:1015A000006507E0A26A42F02002A262E26A42F00D
:1015B0000102E26221684A6822F469422A434A60D1
:1015C00021688D681B4A2A401A438A60A268B2F5D6
:1015D000807F01D0012A03D12269013A110500E080
:1015E00000212568EA6A22F470020A43EA6222684E
:1015F0009168114A0A40934208D10023E362A36A2A
:1016000023F0030343F00103A36238BDA36A23F070
:10161000120343F01003A362E36A43F00103E362A1
:10162000012038BDA36A43F01003A362012038BD36
:1016300001207047FDF7E1FFFE0E1FFF704700BF5E
:1016400010B504460E4B18784FF47A73B3FBF0F3E1
:101650000C4A1068B0FBF3F000F068FE58B90F2C8C
:101660000BD8002221464FF0FF3000F021FE064B40
:101670001C60002010BD012010BD012010BD00BF66
:1016800004000020080000200000002008B5074AE0
:10169000136843F010031360032000F0F7FD0020EF
:1016A000FFF7CEFFFFF7B6FC002008BD0020024088
:1016B000034A1368034909780B441360704700BF5D
:1016C000B002002004000020014B1868704700BFE2
:1016D000B002002038B50446FFF7F6FF0546B4F126
:1016E000FF3F02D0044B1B781C44FFF7EDFF401B6B
:1016F0008442FAD838BD00BF0400002082B0084BF5
:101700001B68084AA2FB03235B0A00FB03F001905D
:1017100000BF019B5A1E0192002BF9D102B0704705
:1017200008000020D34D621070B582B004460368F3
:1017300013F0010F6BD0A84B5B6803F00C03042B74
:101740000AD0A54B5B6803F00C03082B0DD1A24B0C
:101750005B6813F4803F08D09F4B1B6813F4003F75
:1017600055D06368002B52D1B8E16368B3F5803F70
:1017700005D1994A136843F48033136026E063B9B6
:1017800003F1804303F504331A6822F480321A60AF
:101790001A6822F480221A6018E0B3F5A02F0CD149
:1017A00003F18043A3F53C331A6842F480221A60A7
:1017B0001A6842F480321A6008E0874B1A6822F4F3
:1017C00080321A601A6822F480221A6063687BB142
:1017D000FFF77AFF054605E0FFF776FF401B642818
:1017E00000F27E817C4B1B6813F4003FF4D00EE0C6
:1017F000FFF76AFF054605E0FFF766FF401B642818
:1018000000F27081744B1B6813F4003FF4D123681D
:1018100013F0020F50D0704B5B6813F00C0F0AD01E
:101820006D4B5B6803F00C03082B16D16A4B5B68A9
:1018300013F4803F11D1684B1B6813F0020F03D0E3
:101840002369012B40F05081634A136823F0F803A9
:10185000616943EAC10313602EE02369D3B1012219
:101860005E4B1A60FFF730FF054605E0FFF72CFFDF
:10187000401B022800F23A81574B1B6813F0020FFD
:10188000F4D0554A136823F0F803616943EAC103B1
:10189000136011E00022514B1A60FFF715FF054657
:1018A00005E0FFF711FF401B022800F221814A4B9F
:1018B0001B6813F0020FF4D1236813F0080F29D02E
:1018C000A369ABB10122464B1A60FFF7FDFE054646
:1018D00005E0FFF7F9FE401B022800F20B813E4BAA
:1018E0005B6A13F0020FF4D00120FFF707FF11E04D
:1018F00000223B4B1A60FFF7E7FE054605E0FFF7C5
:10190000E3FE401B022800F2F780334B5B6A13F0C2
:10191000020FF4D1236813F0040F00F089802E4BDE
:10192000DB6913F0805F0BD12B4BDA6942F08052F8
:10193000DA61DB6903F080530193019B012500E02C
:101940000025284B1B6813F4807F13D1254A1368A8
:1019500043F480731360FFF7B7FE064605E0FFF718
:10196000B3FE801B642800F2C9801E4B1B6813F471
:10197000807FF4D0E368012B05D1174A136A43F046
:101980000103136222E063B903F1804303F50433DA
:101990001A6A22F001021A621A6A22F004021A621A
:1019A00014E0052B09D10C4B1A6A42F004021A62AA
:1019B0001A6A42F001021A6208E0074B1A6A22F022
:1019C00001021A621A6A22F004021A62E368CBB1B9
:1019D000FFF77AFE06460FE0001002400000424288
:1019E0008004424200700040FFF76EFE801B41F20F
:1019F0008833984200F28480494B1B6A13F0020F2F
:101A0000F2D00FE0FFF760FE064606E0FFF75CFE4F
:101A1000801B41F28833984274D8414B1B6A13F003
:101A2000020FF3D125B13E4AD36923F08053D3612D
:101A3000E369002B68D03A4A526802F00C02082A87
:101A400064D0022B37D10022364B1A60FFF73CFEE0
:101A5000054604E0FFF738FE401B022858D8304BFB
:101A60001B6813F0007FF5D1236AB3F5803F06D1E0
:101A70002B494B6823F40032A36813434B6028487A
:101A8000436823F47411236A626A13430B4343606F
:101A90000122244B1A60FFF717FE044604E0FFF70B
:101AA00013FE001B022835D81D4B1B6813F0007F66
:101AB000F5D0002031E000221A4B1A60FFF704FE37
:101AC000044604E0FFF700FE001B022824D8144B54
:101AD0001B6813F0007FF5D100201EE001201CE000
:101AE00003201AE0032018E0012016E0032014E090
:101AF000032012E0032010E003200EE003200CE09E
:101B000003200AE0032008E0002006E0012004E0B2
:101B1000032002E0032000E0032002B070BD00BFFC
:101B2000001002406000424230B486B0164D02AC54
:101B300028686968AA68EB680FC42B8AADF804307E
:101B4000124B5B6803F00C02082A19D1C3F38342DD
:101B500006A90A4412F8100C13F4803F0CD00B4B6A
:101B60005B68C3F340430B4413F8142C084B03FB8E
:101B700000F0B0FBF2F004E0064B03FB00F000E0E5
:101B8000034806B030BC70476424000800100240CF
:101B900000127A0000093D0070B5654B1B6803F028
:101BA00007038B420BD2624A136823F007030B43EF
:101BB0001360136803F00703994240F0A88003689C
:101BC00013F0020F17D013F0040F04D0594A5368D2
:101BD00043F4E0635360036813F0080F04D0554AE0
:101BE000536843F460535360524C636823F0F0022F
:101BF0008368134363600D460446036813F0010FC6
:101C00004DD04268012A05D14A4B1B6813F4003FAE
:101C10000DD17EE0022A05D1464B1B6813F0007FF0
:101C200005D178E0434B1B6813F0020F75D0414992
:101C30004B6823F0030313434B60FFF745FD064653
:101C40006368012B0ED106E0FFF73EFD801B41F2D9
:101C50008833984263D8374B5B6803F00C03042B3E
:101C6000F2D11CE0022B15D106E0FFF72DFD801B01
:101C700041F28833984254D82E4B5B6803F00C0332
:101C8000082BF2D10BE0FFF71FFD801B41F28833D8
:101C9000984248D8274B5B6813F00C0FF3D1244BC4
:101CA0001B6803F007039D420AD2214A136823F000
:101CB00007032B431360136803F007039D4234D1DD
:101CC000236813F0040F06D01A494B6823F4E0622E
:101CD000E36813434B60236813F0080F07D0154ADD
:101CE000536823F46053216943EAC1035360FFF74B
:101CF0001BFF104B5B68C3F303130F4AD35CD84040
:101D00000E4B18600020FFF79BFC002070BD0120E7
:101D100070BD012070BD012070BD012070BD032089
:101D200070BD032070BD032070BD012070BD00BFD9
:101D30000020024000100240782400080800002023
:101D400070B582B00446036813F0010F5CD03E4BBF
:101D5000DB6913F0805F0BD13B4BDA6942F08052B4
:101D6000DA61DB6903F080530193019B012600E0F7
:101D70000026364B1B6813F4807F12D1334A136858
:101D800043F480731360FFF79FFC054604E0FFF700
:101D90009BFC401B64284FD82C4B1B6813F4807F9E
:101DA000F5D0294B1B6A13F4407321D0626802F40A
:101DB000407293421CD0244A136A23F44070244991
:101DC00001250D6000250D60106213F0010F0FD08A
:101DD000FFF77AFC054606E0FFF776FC401B41F270
:101DE000883398422AD8184B1B6A13F0020FF3D09D
:101DF00015490B6A23F44072636813430B621EB1EA
:101E0000CB6923F08053CB61236813F0020F06D017
:101E10000D494B6823F44042A36813434B60236889
:101E200013F0100F0CD008494B6823F48002E368CC
:101E300013434B60002004E0032002E0032000E095
:101E4000002002B070BD00BF0010024000700040D2
:101E500040044242F0B583B000263446D5E001226A
:101E6000A2400B6813409A4240F0CE804D68122D7C
:101E70002DD00BD8022D27D003D85DB3012D1ED055
:101E800035E0032D30D0112D1BD030E0614FBD4225
:101E900020D008D8A7F58017BD421BD007F58037A2
:101EA000BD4224D116E05C4FBD4213D007F5803708
:101EB000BD420FD0A7F58017BD4218D10AE0CE6809
:101EC00015E0CE68043612E0CE6808360FE0CE6822
:101ED0000C360CE08D684DB1012D02D1026108264F
:101EE00005E04261082602E0002600E00426FF2B00
:101EF00001D8864601E000F1040EFF2B01D8A200B4
:101F000002E0A4F108029200DEF800700F2595406F
:101F100027EA050506FA02F22A43CEF800204A68AD
:101F200012F0805F70D03D4A956945F001059561DA
:101F3000926902F001020192019AA708BD1C384A79
:101F400052F8255004F0030292004FF00F0E0EFAE3
:101F500002FE25EA0E0E334DA8420DD005F5806530
:101F6000A8420BD005F58065A84209D005F580652B
:101F7000A84207D1032506E0002504E0012502E080
:101F8000022500E0042505FA02F24EEA02020237B9
:101F9000234D45F827204A6812F4803F05D005F507
:101FA00080652A681A432A6004E01F4D2A6822EAE5
:101FB00003022A604A6812F4003F04D01A4D6A688E
:101FC0001A436A6004E0184D6A6822EA03026A60F4
:101FD0004A6812F4801F04D0134DAA681A43AA60FD
:101FE00004E0114DAA6822EA0302AA604A6812F4CA
:101FF000001F04D00C4DEA681343EB6004E00A4D67
:10200000EA6822EA0303EB6001340F2C7FF627AF66
:1020100003B0F0BD0000211000003110001002409C
:102020000000014000080140000401400AB10161C4
:10203000704709040161704770B4C56B066C0124D8
:10204000B4406C60046863604368102B04D103687B
:102050009A600368D96003E0036899600368DA60F6
:1020600070BC704758B310B403460068164A024467
:102070001649A1FB0212120992001A64144ADA638B
:10208000022283F82120026822F47F5121F03001DE
:102090005C689A681443DA6814431A6914435A69ED
:1020A00014439A691443DA6922430A430260002008
:1020B0009863012283F8212083F8200001E00120A9
:1020C000704710BC704700BFF8FFFDBFCDCCCCCC33
:1020D0000000024038B590F82040012C32D0012495
:1020E00080F8204090F82140012C26D1044602209F
:1020F00084F821000020A0632568286820F00100F2
:1021000028602046FFF798FFE36A2BB12268136826
:1021100043F00E03136009E02268136823F0040300
:1021200013602268136843F00A031360226813687F
:1021300043F001031360002038BD002380F82030F5
:10214000022038BD022038BD38B5C36B1A68046858
:102150002568016C04238B401A4236D015F0040F19
:1021600033D0236813F0200F03D1236823F0040336
:1021700023600368434A934211D01432934210D033
:10218000143293420FD0143293420FD01432934240
:102190000FD0143293420FD14FF480020EE004228C
:1021A0000CE040220AE04FF4806207E04FF48042E6
:1021B00004E04FF4802201E04FF08062324B5A601D
:1021C000C36A002B5CD0984738BD02238B401A426B
:1021D0003BD015F0020F38D0236813F0200F06D142
:1021E000236823F00A032360012380F82130036869
:1021F000244A934211D01432934210D014329342A5
:102200000FD0143293420FD0143293420FD01432B5
:1022100093420FD14FF400120EE002220CE0202274
:102220000AE04FF4007207E04FF4005204E04FF46C
:10223000003201E04FF00072134B5A60002380F827
:102240002030836AE3B1984738BD082303FA01F1CF
:102250000A4215D015F0080F12D0236823F00E03A0
:102260002360C16B026C012303FA02F24A608363AC
:1022700080F82130002380F82030036B03B19847A9
:1022800038BD00BF0800024000000240074AD36882
:1022900023F4E0631B041B0C000200F4E06018430D
:1022A00040F0BF6040F40030D060704700ED00E0C7
:1022B00030B4164BDB68C3F30223C3F10704042CCC
:1022C00028BF04241D1D062D01D9DD1E00E00025B8
:1022D000012303FA04F4013C2140A940AB40013B37
:1022E0001A400A43002806DA00F00F001201D2B2A9
:1022F000074B1A5407E01201D2B200F1604000F51A
:10230000614080F8002330BC704700BF00ED00E062
:1023100014ED00E0420900F01F00012303FA00F071
:10232000014B43F82200704700E100E00138B0F1B2
:10233000807F0AD2064B5860F021064A82F82310AB
:102340000020986007221A6070470120704700BF84
:1023500010E000E000ED00E00F4B1A6842F00102CF
:102360001A6059680D4A0A405A601A6822F084724D
:1023700022F480321A601A6822F480221A605A68A5
:1023800022F4FE025A604FF41F029A604FF000627E
:10239000034B9A60704700BF001002400000FFF836
:1023A00000ED00E0002103E00B4B5B58435004318B
:1023B0000A480B4B42189A42F6D30A4A02E000231D
:1023C00042F8043B084B9A42F9D3FFF7C5FF00F0EF
:1023D0000FF8FEF71FFC7047902400080000002053
:1023E0000C00002010000020B4020020FEE70000D6
:1023F0000E4B70B51E460E4C0025E41AA410A542E3
:1024000004D056F8253098470135F8E700F01EF85B
:10241000084B094C1E46E41AA4100025A54204D01E
:1024200056F8253098470135F8E770BD8824000834
:1024300088240008882400088C24000803460244ED
:10244000934202D003F8011BFAE77047F8B500BFCA
:10245000F8BC08BC9E467047F8B500BFF8BC08BC85
:042460009E467047DD
:1024640002030405060708090A0B0C0D0E0F1010D1
:10247400010200000000000000000000010203044B
:042484000607080936
:042488003501000812
:04248C001101000832
:0C249000100000000100000000A24A043F
:04000005080023A527
:00000001FF
